:100000000C9438000C944D000C944D000C944D0051
:100010000C944D000C944D000C944D000C944D002C
:100020000C944D000C944D000C944D000C944D001C
:100030000C944D000C944D000C944D000C944D000C
:100040000C944D000C944D000C944D000C944D00FC
:100050000C944D000C944D000C944D000C944D00EC
:100060000C944D000C944D000C944D000C944D00DC
:1000700011241FBECFEFD4E0DEBFCDBF11E0A0E062
:10008000B1E0E0E5FBE002C005900D92A234B107BB
:10009000D9F70E9477010C94A6050C9400008BBB45
:1000A00087B18E7F87B987B18D7F87B987B184602B
:1000B00087B9000087B18B7F87B983EF91E0019703
:1000C000F1F700C0000008958BBB87B1816087B94C
:1000D00087B18D7F87B987B1846087B9000087B108
:1000E0008B7F87B983EF91E00197F1F700C00000A3
:1000F000089586B1876086B98FEF8ABB87E893E160
:100100000197F1F700C0000088E30E944F008CE0E7
:100110000E944F0081E00E944F0083EF91E0019721
:10012000F1F700C0000086E00E944F000895CF93D1
:10013000DF93EC0103C021960E9464008881811145
:10014000FACFDF91CF9108950F931F93CF93DF9351
:10015000CDB7DEB760970FB6F894DEBF0FBECDBF48
:100160009F938F9380E291E09F938F938E010F5F17
:100170001F4F1F930F930E94BC02C8010E9497005B
:100180000F900F900F900F900F900F9060960FB6FA
:10019000F894DEBF0FBECDBFDF91CF911F910F91BD
:1001A0000895813019F480E8860F02C080EC860F34
:1001B0000E944F000895CF93DF93CDB7DEB7A0978D
:1001C0000FB6F894DEBF0FBECDBF80E2E0E0F1E0F5
:1001D000DE01119601900D928A95E1F7E0E0F0E0E2
:1001E00036C081E090E00E2E02C0880F991F0A945D
:1001F000E2F7809588BB89EF90E00197F1F700C0A6
:10020000000020E030E01FC086B390E0A9014C5F01
:100210005F4F02C0959587954A95E2F780FD11C022
:10022000EE0FFF1FEE0FFF1FE20FF31FEE0FFF1F7A
:1002300081E090E08C0F9D1FE80FF91F8081918174
:100240000BC02F5F3F4F24303105F4F23196E4307C
:10025000F1053CF28FEF9FEFA0960FB6F894DEBF4A
:100260000FBECDBFDF91CF91089520E030E006C0F2
:10027000FC01E20FF31F10822F5F3F4F2031310549
:10028000BCF3FB0111821082089581E88FBD8AE0E2
:100290008EBD81B3806281BB089590E09BBD8ABD15
:1002A000089581B38F6981BB81B38F7B81BB14BA01
:1002B000089592B3987F8770892B82BB82B3886040
:1002C00082BB000082B3877F82BB82B3806182BB26
:1002D000000082B38F7E82BB869BFECF82B3806894
:1002E00082BB000083B392B39F7792BB0895CF93F4
:1002F000DF93CDB7DEB7A6970FB6F894DEBF0FBE7B
:10030000CDBF0E9479000E9445010E945101FE016B
:10031000319684E1DF011D928A95E9F787E38983AD
:1003200088E38A8389E38B8383E38C8394E39D83CF
:1003300095E39E8396E39F839AE2988791E399875A
:1003400092E39A878B878DE28C878FE68D8780E397
:100350008E878DE38F878BE2888B8FE087BB80EF62
:1003600088BB1E8A1D8A76968EE0DF011D928A95D3
:10037000E9F71EA21DA281E00E944F0083E291E0F6
:100380000E94970010E011119EC00E94DB008F3F79
:10039000BFEF9B07C1F38A30910528F54DA15EA1FF
:1003A0009A012F5F3F4F3EA32DA3E1E0F0E0EC0F59
:1003B000FD1FE80FF91F8081E5E1F0E0EC0FFD1F64
:1003C000E40FF51F8083E5E1F0E0EC0FFD1FE20F85
:1003D000F31F108260E082E00E94D100CE014596BA
:1003E0000E94970066C08D309105F1F42DA13EA1C9
:1003F000C90101969EA38DA3E5E1F0E0EC0FFD1F7E
:10040000E20FF31F40E34083E5E1F0E0EC0FFD1F56
:10041000E80FF91F108260E082E00E94D100CE0157
:1004200045960E94970045C0E1E0F0E0EC0FFD1F0B
:10043000E80FF91F80818D33D1F4CE0145960E94DB
:1004400096027C018F3F910521F01CF0EE24EA9486
:10045000F12C8E2D0E944D0181E00E944F0080E31F
:1004600091E00E949700C7010E94A40022C08F362D
:10047000B1F4BE016B5D7F4FCE0145960E94350100
:1004800080E00E944D0181E00E944F0080E391E0F6
:100490000E94970080E090E00E94A4000AC08B3286
:1004A00041F481E00E944F0088E391E00E949700B0
:1004B00011E08FE996E8A1E081509040A040E1F77B
:1004C00000C0000060CF113009F05DCF0E94DB005A
:1004D0008F3FBFEF9B0789F0E1E0F0E0EC0FFD1FDD
:1004E000E80FF91F80818B3241F481E00E944F00B8
:1004F00083E291E00E94970010E080E00E945901A1
:10050000E82EF12C0E944D0160E082E00E94D100B3
:1005100080E391E00E949700C7010E94A40083EC51
:1005200099E00197F1F700C000002DCFFC0188276A
:100530009927E89421912032E9F3293010F02E30E8
:10054000C8F32B3241F02D3239F4689404C00E9474
:10055000B402820F911D219120532A30C0F31EF462
:10056000909581959F4F08957AE0979F902D879F52
:10057000802D910D11240895AEE0B0E0E2ECF2E0A0
:100580000C947D050D891E8986E08C831A8309836E
:100590008FEF9FE79E838D83AE01475E5F4F6F892C
:1005A000788DCE0101960E94DE02EF81F885E00F82
:1005B000F11F10822E96E4E00C949905ABE0B0E0B8
:1005C000E4EEF2E00C946F056C017B018A01FC0102
:1005D00017821682838181FFCCC1CE0101963C0136
:1005E000F6019381F70193FD859193FF81917F013E
:1005F000882309F4BAC1853239F493FD859193FFBC
:1006000081917F01853229F4B60190E00E94D504E2
:10061000E7CF912C212C312CFFE1F315D8F08B3250
:1006200079F038F4803279F08332A1F4232D2061FF
:100630001DC08D3261F0803369F4232D216016C016
:10064000832D8260382EE32DE4603E2E2AC0F32DE8
:10065000F8601DC037FC2DC020ED280F2A3040F077
:100660008E32B9F436FC81C1232D2064322E19C09C
:1006700036FE06C08AE0989E200D1124922E11C0ED
:10068000EAE02E9E200D1124222EF32DF0623F2E43
:1006900008C08C3621F4832D8068382E02C088363D
:1006A00041F4F70193FD859193FF81917F018111C1
:1006B000B3CF982F9F7D9554933028F40C5F1F4F34
:1006C0009FE399830DC0833631F0833771F0833512
:1006D00009F059C021C0F801808189830E5F1F4F46
:1006E00088248394912C530113C02801F2E04F0E0B
:1006F000511CF801A080B18036FE03C0692D70E066
:1007000002C06FEF7FEFC5010E94CA044C01820155
:10071000F32DFF773F2E16C0280122E0420E511C18
:10072000F801A080B18036FE03C0692D70E002C0E0
:100730006FEF7FEFC5010E94BF044C01F32DF068FD
:100740003F2E820133FC1BC0822D90E08816990653
:10075000B0F4B60180E290E00E94D5042A94F4CF70
:10076000F50137FC859137FE81915F01B60190E07C
:100770000E94D50421102A9421E0821A9108811444
:10078000910471F7E8C0843611F0893641F5F8011B
:1007900037FE07C060817181828193810C5F1F4F9A
:1007A00008C060817181072E000C880B990B0E5FC9
:1007B0001F4FF32DFF763F2E97FF09C09095809530
:1007C000709561957F4F8F4F9F4FF0683F2E2AE0C5
:1007D00030E0A3010E941105882E861845C0853798
:1007E00031F4232D2F7EB22E2AE030E025C0932D48
:1007F000997FB92E8F36C1F018F4883579F0B5C0DD
:10080000803719F0883721F0B0C0E92FE061BE2EA3
:10081000B4FE0DC0FB2DF460BF2E09C034FE0AC02B
:10082000292F2660B22E06C028E030E005C020E166
:1008300030E002C020E132E0F801B7FE07C060817D
:100840007181828193810C5F1F4F06C0608171812D
:1008500080E090E00E5F1F4FA3010E941105882EDB
:100860008618FB2DFF773F2E36FE0DC0232D2E7FE1
:10087000A22E891458F434FE0BC032FC09C0832D1B
:100880008E7EA82E05C0B82CA32C03C0B82C01C0A6
:10089000B92CA4FE0FC0FE01E80DF11D808180334C
:1008A00021F49A2D997EA92E09C0A2FE06C0B39408
:1008B000B39404C08A2D867809F0B394A3FC11C0C8
:1008C000A0FE06C0B21488F4280C922C9B180EC00F
:1008D000B21460F4B60180E290E00E94D504B394B3
:1008E000F7CFB21418F42B1802C0982C212CA4FEB8
:1008F00010C0B60180E390E00E94D504A2FE17C0AC
:10090000A1FC03C088E790E002C088E590E0B60152
:100910000CC08A2D867859F0A1FE02C08BE201C07E
:1009200080E2A7FC8DE2B60190E00E94D504891414
:1009300038F4B60180E390E00E94D5049A94F7CF92
:100940008A94F301E80DF11D8081B60190E00E94C8
:10095000D5048110F5CF222009F442CEB60180E201
:1009600090E00E94D5042A94F6CFF6018681978103
:1009700002C08FEF9FEF2B96E2E10C948B05FC01F8
:100980000590615070400110D8F7809590958E0FBA
:100990009F1F0895FC016150704001900110D8F72D
:1009A000809590958E0F9F1F08950F931F93CF935F
:1009B000DF93FB01238121FD03C08FEF9FEF2CC04C
:1009C00022FF16C046815781248135814217530783
:1009D00044F4A081B1819D012F5F3F4F318320837B
:1009E0008C93268137812F5F3F4F3783268314C036
:1009F0008B01EC01FB010084F185E02D0995892B29
:100A0000E1F6D80116968D919C911797019617964D
:100A10009C938E931697CE01DF91CF911F910F91EA
:100A20000895FA01AA27283051F1203181F1E89484
:100A30006F936E7F6E5F7F4F8F4F9F4FAF4FB1E0D1
:100A40003ED0B4E03CD0670F781F891F9A1FA11DCC
:100A5000680F791F8A1F911DA11D6A0F711D811DCD
:100A6000911DA11D20D009F468943F912AE0269F92
:100A700011243019305D3193DEF6CF010895462FF1
:100A80004770405D4193B3E00FD0C9F7F6CF462FD2
:100A90004F70405D4A3318F0495D31FD405241933B
:100AA00002D0A9F7EACFB4E0A695979587957795F8
:100AB0006795BA95C9F700976105710508959B017F
:100AC000AC010A2E06945795479537952795BA9508
:100AD000C9F7620F731F841F951FA01D08952F92E1
:100AE0003F924F925F926F927F928F929F92AF92BE
:100AF000BF92CF92DF92EF92FF920F931F93CF930B
:100B0000DF93CDB7DEB7CA1BDB0B0FB6F894DEBFA1
:100B10000FBECDBF09942A88398848885F846E84C7
:100B20007D848C849B84AA84B984C884DF80EE8011
:100B3000FD800C811B81AA81B981CE0FD11D0FB61A
:100B4000F894DEBF0FBECDBFED010895F894FFCF3E
:100B50000000010002000F000400050006000A006A
:100B60000800090003000B000C000D000E000F0030
:100B7000256400456E7465722053706565643A00A3
:100B800053706565643A2000414443204D6F6465AD
:020B90003A0029
:00000001FF
